{
  "_format": "hh-sol-artifact-1",
  "contractName": "FunNFT",
  "sourceName": "contracts/nft.sol",
  "abi": [
    {
      "inputs": [],
      "stateMutability": "nonpayable",
      "type": "constructor"
    },
    {
      "anonymous": false,
      "inputs": [
        {
          "indexed": true,
          "internalType": "address",
          "name": "owner",
          "type": "address"
        },
        {
          "indexed": true,
          "internalType": "address",
          "name": "approved",
          "type": "address"
        },
        {
          "indexed": true,
          "internalType": "uint256",
          "name": "tokenId",
          "type": "uint256"
        }
      ],
      "name": "Approval",
      "type": "event"
    },
    {
      "anonymous": false,
      "inputs": [
        {
          "indexed": true,
          "internalType": "address",
          "name": "owner",
          "type": "address"
        },
        {
          "indexed": true,
          "internalType": "address",
          "name": "operator",
          "type": "address"
        },
        {
          "indexed": false,
          "internalType": "bool",
          "name": "approved",
          "type": "bool"
        }
      ],
      "name": "ApprovalForAll",
      "type": "event"
    },
    {
      "anonymous": false,
      "inputs": [
        {
          "indexed": true,
          "internalType": "address",
          "name": "from",
          "type": "address"
        },
        {
          "indexed": true,
          "internalType": "address",
          "name": "to",
          "type": "address"
        },
        {
          "indexed": true,
          "internalType": "uint256",
          "name": "tokenId",
          "type": "uint256"
        }
      ],
      "name": "Transfer",
      "type": "event"
    },
    {
      "inputs": [
        {
          "internalType": "address",
          "name": "to",
          "type": "address"
        },
        {
          "internalType": "uint256",
          "name": "tokenId",
          "type": "uint256"
        }
      ],
      "name": "approve",
      "outputs": [],
      "stateMutability": "nonpayable",
      "type": "function"
    },
    {
      "inputs": [
        {
          "internalType": "address",
          "name": "owner",
          "type": "address"
        }
      ],
      "name": "balanceOf",
      "outputs": [
        {
          "internalType": "uint256",
          "name": "",
          "type": "uint256"
        }
      ],
      "stateMutability": "view",
      "type": "function"
    },
    {
      "inputs": [
        {
          "internalType": "uint256",
          "name": "tokenId",
          "type": "uint256"
        }
      ],
      "name": "buy",
      "outputs": [],
      "stateMutability": "payable",
      "type": "function"
    },
    {
      "inputs": [
        {
          "internalType": "uint256",
          "name": "tokenId",
          "type": "uint256"
        }
      ],
      "name": "getApproved",
      "outputs": [
        {
          "internalType": "address",
          "name": "",
          "type": "address"
        }
      ],
      "stateMutability": "view",
      "type": "function"
    },
    {
      "inputs": [
        {
          "internalType": "address",
          "name": "owner",
          "type": "address"
        },
        {
          "internalType": "address",
          "name": "operator",
          "type": "address"
        }
      ],
      "name": "isApprovedForAll",
      "outputs": [
        {
          "internalType": "bool",
          "name": "",
          "type": "bool"
        }
      ],
      "stateMutability": "view",
      "type": "function"
    },
    {
      "inputs": [
        {
          "internalType": "string",
          "name": "tokenURI",
          "type": "string"
        },
        {
          "internalType": "uint256",
          "name": "price",
          "type": "uint256"
        }
      ],
      "name": "mint",
      "outputs": [
        {
          "internalType": "uint256",
          "name": "tokenId",
          "type": "uint256"
        }
      ],
      "stateMutability": "nonpayable",
      "type": "function"
    },
    {
      "inputs": [],
      "name": "name",
      "outputs": [
        {
          "internalType": "string",
          "name": "",
          "type": "string"
        }
      ],
      "stateMutability": "view",
      "type": "function"
    },
    {
      "inputs": [
        {
          "internalType": "uint256",
          "name": "tokenId",
          "type": "uint256"
        }
      ],
      "name": "ownerOf",
      "outputs": [
        {
          "internalType": "address",
          "name": "",
          "type": "address"
        }
      ],
      "stateMutability": "view",
      "type": "function"
    },
    {
      "inputs": [
        {
          "internalType": "address",
          "name": "from",
          "type": "address"
        },
        {
          "internalType": "address",
          "name": "to",
          "type": "address"
        },
        {
          "internalType": "uint256",
          "name": "tokenId",
          "type": "uint256"
        }
      ],
      "name": "safeTransferFrom",
      "outputs": [],
      "stateMutability": "nonpayable",
      "type": "function"
    },
    {
      "inputs": [
        {
          "internalType": "address",
          "name": "from",
          "type": "address"
        },
        {
          "internalType": "address",
          "name": "to",
          "type": "address"
        },
        {
          "internalType": "uint256",
          "name": "tokenId",
          "type": "uint256"
        },
        {
          "internalType": "bytes",
          "name": "data",
          "type": "bytes"
        }
      ],
      "name": "safeTransferFrom",
      "outputs": [],
      "stateMutability": "nonpayable",
      "type": "function"
    },
    {
      "inputs": [
        {
          "internalType": "address",
          "name": "operator",
          "type": "address"
        },
        {
          "internalType": "bool",
          "name": "approved",
          "type": "bool"
        }
      ],
      "name": "setApprovalForAll",
      "outputs": [],
      "stateMutability": "nonpayable",
      "type": "function"
    },
    {
      "inputs": [
        {
          "internalType": "bytes4",
          "name": "interfaceId",
          "type": "bytes4"
        }
      ],
      "name": "supportsInterface",
      "outputs": [
        {
          "internalType": "bool",
          "name": "",
          "type": "bool"
        }
      ],
      "stateMutability": "view",
      "type": "function"
    },
    {
      "inputs": [],
      "name": "symbol",
      "outputs": [
        {
          "internalType": "string",
          "name": "",
          "type": "string"
        }
      ],
      "stateMutability": "view",
      "type": "function"
    },
    {
      "inputs": [
        {
          "internalType": "uint256",
          "name": "tokenId",
          "type": "uint256"
        }
      ],
      "name": "toggleForSale",
      "outputs": [],
      "stateMutability": "nonpayable",
      "type": "function"
    },
    {
      "inputs": [
        {
          "internalType": "uint256",
          "name": "tokenId",
          "type": "uint256"
        }
      ],
      "name": "tokenURI",
      "outputs": [
        {
          "internalType": "string",
          "name": "",
          "type": "string"
        }
      ],
      "stateMutability": "view",
      "type": "function"
    },
    {
      "inputs": [
        {
          "internalType": "address",
          "name": "from",
          "type": "address"
        },
        {
          "internalType": "address",
          "name": "to",
          "type": "address"
        },
        {
          "internalType": "uint256",
          "name": "tokenId",
          "type": "uint256"
        }
      ],
      "name": "transferFrom",
      "outputs": [],
      "stateMutability": "nonpayable",
      "type": "function"
    }
  ],
  "bytecode": "0x60806040523480156200001157600080fd5b506040518060400160405280601181526020017f46756e4e465420436f6c6c656374696f6e0000000000000000000000000000008152506040518060400160405280600381526020017f46554e000000000000000000000000000000000000000000000000000000000081525081600090816200008f919062000324565b508060019081620000a1919062000324565b5050506200040b565b600081519050919050565b7f4e487b7100000000000000000000000000000000000000000000000000000000600052604160045260246000fd5b7f4e487b7100000000000000000000000000000000000000000000000000000000600052602260045260246000fd5b600060028204905060018216806200012c57607f821691505b602082108103620001425762000141620000e4565b5b50919050565b60008190508160005260206000209050919050565b60006020601f8301049050919050565b600082821b905092915050565b600060088302620001ac7fffffffffffffffffffffffffffffffffffffffffffffffffffffffffffffffff826200016d565b620001b886836200016d565b95508019841693508086168417925050509392505050565b6000819050919050565b6000819050919050565b600062000205620001ff620001f984620001d0565b620001da565b620001d0565b9050919050565b6000819050919050565b6200022183620001e4565b6200023962000230826200020c565b8484546200017a565b825550505050565b600090565b6200025062000241565b6200025d81848462000216565b505050565b5b8181101562000285576200027960008262000246565b60018101905062000263565b5050565b601f821115620002d4576200029e8162000148565b620002a9846200015d565b81016020851015620002b9578190505b620002d1620002c8856200015d565b83018262000262565b50505b505050565b600082821c905092915050565b6000620002f960001984600802620002d9565b1980831691505092915050565b6000620003148383620002e6565b9150826002028217905092915050565b6200032f82620000aa565b67ffffffffffffffff8111156200034b576200034a620000b5565b5b62000357825462000113565b6200036482828562000289565b600060209050601f8311600181146200039c576000841562000387578287015190505b62000393858262000306565b86555062000403565b601f198416620003ac8662000148565b60005b82811015620003d657848901518255600182019150602085019450602081019050620003af565b86831015620003f65784890151620003f2601f891682620002e6565b8355505b6001600288020188555050505b505050505050565b612ff4806200041b6000396000f3fe6080604052600436106100f35760003560e01c806370a082311161008a578063b88d4fde11610059578063b88d4fde1461034c578063c87b56dd14610375578063d96a094a146103b2578063e985e9c5146103ce576100f3565b806370a082311461029257806395d89b41146102cf578063a22cb465146102fa578063a32018b914610323576100f3565b8063095ea7b3116100c6578063095ea7b3146101da57806323b872dd1461020357806342842e0e1461022c5780636352211e14610255576100f3565b806301ffc9a7146100f8578063056b01ce1461013557806306fdde0314610172578063081812fc1461019d575b600080fd5b34801561010457600080fd5b5061011f600480360381019061011a9190611e4c565b61040b565b60405161012c9190611e94565b60405180910390f35b34801561014157600080fd5b5061015c6004803603810190610157919061202b565b6104ed565b6040516101699190612096565b60405180910390f35b34801561017e57600080fd5b5061018761058d565b6040516101949190612130565b60405180910390f35b3480156101a957600080fd5b506101c460048036038101906101bf9190612152565b61061f565b6040516101d191906121c0565b60405180910390f35b3480156101e657600080fd5b5061020160048036038101906101fc9190612207565b610665565b005b34801561020f57600080fd5b5061022a60048036038101906102259190612247565b61077c565b005b34801561023857600080fd5b50610253600480360381019061024e9190612247565b6107dc565b005b34801561026157600080fd5b5061027c60048036038101906102779190612152565b6107fc565b60405161028991906121c0565b60405180910390f35b34801561029e57600080fd5b506102b960048036038101906102b4919061229a565b610882565b6040516102c69190612096565b60405180910390f35b3480156102db57600080fd5b506102e4610939565b6040516102f19190612130565b60405180910390f35b34801561030657600080fd5b50610321600480360381019061031c91906122f3565b6109cb565b005b34801561032f57600080fd5b5061034a60048036038101906103459190612152565b6109e1565b005b34801561035857600080fd5b50610373600480360381019061036e91906123d4565b610ae8565b005b34801561038157600080fd5b5061039c60048036038101906103979190612152565b610b4a565b6040516103a99190612130565b60405180910390f35b6103cc60048036038101906103c79190612152565b610c5c565b005b3480156103da57600080fd5b506103f560048036038101906103f09190612457565b610dde565b6040516104029190611e94565b60405180910390f35b60007f80ac58cd000000000000000000000000000000000000000000000000000000007bffffffffffffffffffffffffffffffffffffffffffffffffffffffff1916827bffffffffffffffffffffffffffffffffffffffffffffffffffffffff191614806104d657507f5b5e139f000000000000000000000000000000000000000000000000000000007bffffffffffffffffffffffffffffffffffffffffffffffffffffffff1916827bffffffffffffffffffffffffffffffffffffffffffffffffffffffff1916145b806104e657506104e582610e72565b5b9050919050565b60006104f96007610edc565b6105036007610ef2565b905061050f3382610f00565b610519818461111d565b600060405180606001604052808381526020018481526020016000151581525090508060086000848152602001908152602001600020600082015181600001556020820151816001015560408201518160020160006101000a81548160ff0219169083151502179055509050505092915050565b60606000805461059c906124c6565b80601f01602080910402602001604051908101604052809291908181526020018280546105c8906124c6565b80156106155780601f106105ea57610100808354040283529160200191610615565b820191906000526020600020905b8154815290600101906020018083116105f857829003601f168201915b5050505050905090565b600061062a8261118a565b6004600083815260200190815260200160002060009054906101000a900473ffffffffffffffffffffffffffffffffffffffff169050919050565b6000610670826107fc565b90508073ffffffffffffffffffffffffffffffffffffffff168373ffffffffffffffffffffffffffffffffffffffff16036106e0576040517f08c379a00000000000000000000000000000000000000000000000000000000081526004016106d790612569565b60405180910390fd5b8073ffffffffffffffffffffffffffffffffffffffff166106ff6111d5565b73ffffffffffffffffffffffffffffffffffffffff16148061072e575061072d816107286111d5565b610dde565b5b61076d576040517f08c379a0000000000000000000000000000000000000000000000000000000008152600401610764906125fb565b60405180910390fd5b61077783836111dd565b505050565b61078d6107876111d5565b82611296565b6107cc576040517f08c379a00000000000000000000000000000000000000000000000000000000081526004016107c39061268d565b60405180910390fd5b6107d783838361132b565b505050565b6107f783838360405180602001604052806000815250610ae8565b505050565b60008061080883611624565b9050600073ffffffffffffffffffffffffffffffffffffffff168173ffffffffffffffffffffffffffffffffffffffff1603610879576040517f08c379a0000000000000000000000000000000000000000000000000000000008152600401610870906126f9565b60405180910390fd5b80915050919050565b60008073ffffffffffffffffffffffffffffffffffffffff168273ffffffffffffffffffffffffffffffffffffffff16036108f2576040517f08c379a00000000000000000000000000000000000000000000000000000000081526004016108e99061278b565b60405180910390fd5b600360008373ffffffffffffffffffffffffffffffffffffffff1673ffffffffffffffffffffffffffffffffffffffff168152602001908152602001600020549050919050565b606060018054610948906124c6565b80601f0160208091040260200160405190810160405280929190818152602001828054610974906124c6565b80156109c15780601f10610996576101008083540402835291602001916109c1565b820191906000526020600020905b8154815290600101906020018083116109a457829003601f168201915b5050505050905090565b6109dd6109d66111d5565b8383611661565b5050565b6109ea816117cd565b6109f357600080fd5b6109fc816107fc565b73ffffffffffffffffffffffffffffffffffffffff163373ffffffffffffffffffffffffffffffffffffffff1614610a3357600080fd5b60006008600083815260200190815260200160002060405180606001604052908160008201548152602001600182015481526020016002820160009054906101000a900460ff16151515158152505090508060400151158160400190151590811515815250508060086000848152602001908152602001600020600082015181600001556020820151816001015560408201518160020160006101000a81548160ff0219169083151502179055509050505050565b610af9610af36111d5565b83611296565b610b38576040517f08c379a0000000000000000000000000000000000000000000000000000000008152600401610b2f9061268d565b60405180910390fd5b610b448484848461180e565b50505050565b6060610b558261118a565b6000600660008481526020019081526020016000208054610b75906124c6565b80601f0160208091040260200160405190810160405280929190818152602001828054610ba1906124c6565b8015610bee5780601f10610bc357610100808354040283529160200191610bee565b820191906000526020600020905b815481529060010190602001808311610bd157829003601f168201915b505050505090506000610bff61186a565b90506000815103610c14578192505050610c57565b600082511115610c49578082604051602001610c319291906127e7565b60405160208183030381529060405292505050610c57565b610c5284611881565b925050505b919050565b610c65816117cd565b610c6e57600080fd5b610c77816107fc565b73ffffffffffffffffffffffffffffffffffffffff163373ffffffffffffffffffffffffffffffffffffffff1603610cae57600080fd5b60006008600083815260200190815260200160002060405180606001604052908160008201548152602001600182015481526020016002820160009054906101000a900460ff16151515158152505090508060200151341015610d1057600080fd5b8060400151610d1e57600080fd5b6000610d29836107fc565b90508073ffffffffffffffffffffffffffffffffffffffff166108fc349081150290604051600060405180830381858888f19350505050158015610d71573d6000803e3d6000fd5b50610d7d81338561132b565b60008260400190151590811515815250508160086000858152602001908152602001600020600082015181600001556020820151816001015560408201518160020160006101000a81548160ff021916908315150217905550905050505050565b6000600560008473ffffffffffffffffffffffffffffffffffffffff1673ffffffffffffffffffffffffffffffffffffffff16815260200190815260200160002060008373ffffffffffffffffffffffffffffffffffffffff1673ffffffffffffffffffffffffffffffffffffffff16815260200190815260200160002060009054906101000a900460ff16905092915050565b60007f01ffc9a7000000000000000000000000000000000000000000000000000000007bffffffffffffffffffffffffffffffffffffffffffffffffffffffff1916827bffffffffffffffffffffffffffffffffffffffffffffffffffffffff1916149050919050565b6001816000016000828254019250508190555050565b600081600001549050919050565b600073ffffffffffffffffffffffffffffffffffffffff168273ffffffffffffffffffffffffffffffffffffffff1603610f6f576040517f08c379a0000000000000000000000000000000000000000000000000000000008152600401610f6690612857565b60405180910390fd5b610f78816117cd565b15610fb8576040517f08c379a0000000000000000000000000000000000000000000000000000000008152600401610faf906128c3565b60405180910390fd5b610fc66000838360016118e9565b610fcf816117cd565b1561100f576040517f08c379a0000000000000000000000000000000000000000000000000000000008152600401611006906128c3565b60405180910390fd5b6001600360008473ffffffffffffffffffffffffffffffffffffffff1673ffffffffffffffffffffffffffffffffffffffff16815260200190815260200160002060008282540192505081905550816002600083815260200190815260200160002060006101000a81548173ffffffffffffffffffffffffffffffffffffffff021916908373ffffffffffffffffffffffffffffffffffffffff160217905550808273ffffffffffffffffffffffffffffffffffffffff16600073ffffffffffffffffffffffffffffffffffffffff167fddf252ad1be2c89b69c2b068fc378daa952ba7f163c4a11628f55a4df523b3ef60405160405180910390a4611119600083836001611a0f565b5050565b611126826117cd565b611165576040517f08c379a000000000000000000000000000000000000000000000000000000000815260040161115c90612955565b60405180910390fd5b806006600084815260200190815260200160002090816111859190612b21565b505050565b611193816117cd565b6111d2576040517f08c379a00000000000000000000000000000000000000000000000000000000081526004016111c9906126f9565b60405180910390fd5b50565b600033905090565b816004600083815260200190815260200160002060006101000a81548173ffffffffffffffffffffffffffffffffffffffff021916908373ffffffffffffffffffffffffffffffffffffffff160217905550808273ffffffffffffffffffffffffffffffffffffffff16611250836107fc565b73ffffffffffffffffffffffffffffffffffffffff167f8c5be1e5ebec7d5bd14f71427d1e84f3dd0314c0f7b2291e5b200ac8c7c3b92560405160405180910390a45050565b6000806112a2836107fc565b90508073ffffffffffffffffffffffffffffffffffffffff168473ffffffffffffffffffffffffffffffffffffffff1614806112e457506112e38185610dde565b5b8061132257508373ffffffffffffffffffffffffffffffffffffffff1661130a8461061f565b73ffffffffffffffffffffffffffffffffffffffff16145b91505092915050565b8273ffffffffffffffffffffffffffffffffffffffff1661134b826107fc565b73ffffffffffffffffffffffffffffffffffffffff16146113a1576040517f08c379a000000000000000000000000000000000000000000000000000000000815260040161139890612c65565b60405180910390fd5b600073ffffffffffffffffffffffffffffffffffffffff168273ffffffffffffffffffffffffffffffffffffffff1603611410576040517f08c379a000000000000000000000000000000000000000000000000000000000815260040161140790612cf7565b60405180910390fd5b61141d83838360016118e9565b8273ffffffffffffffffffffffffffffffffffffffff1661143d826107fc565b73ffffffffffffffffffffffffffffffffffffffff1614611493576040517f08c379a000000000000000000000000000000000000000000000000000000000815260040161148a90612c65565b60405180910390fd5b6004600082815260200190815260200160002060006101000a81549073ffffffffffffffffffffffffffffffffffffffff02191690556001600360008573ffffffffffffffffffffffffffffffffffffffff1673ffffffffffffffffffffffffffffffffffffffff168152602001908152602001600020600082825403925050819055506001600360008473ffffffffffffffffffffffffffffffffffffffff1673ffffffffffffffffffffffffffffffffffffffff16815260200190815260200160002060008282540192505081905550816002600083815260200190815260200160002060006101000a81548173ffffffffffffffffffffffffffffffffffffffff021916908373ffffffffffffffffffffffffffffffffffffffff160217905550808273ffffffffffffffffffffffffffffffffffffffff168473ffffffffffffffffffffffffffffffffffffffff167fddf252ad1be2c89b69c2b068fc378daa952ba7f163c4a11628f55a4df523b3ef60405160405180910390a461161f8383836001611a0f565b505050565b60006002600083815260200190815260200160002060009054906101000a900473ffffffffffffffffffffffffffffffffffffffff169050919050565b8173ffffffffffffffffffffffffffffffffffffffff168373ffffffffffffffffffffffffffffffffffffffff16036116cf576040517f08c379a00000000000000000000000000000000000000000000000000000000081526004016116c690612d63565b60405180910390fd5b80600560008573ffffffffffffffffffffffffffffffffffffffff1673ffffffffffffffffffffffffffffffffffffffff16815260200190815260200160002060008473ffffffffffffffffffffffffffffffffffffffff1673ffffffffffffffffffffffffffffffffffffffff16815260200190815260200160002060006101000a81548160ff0219169083151502179055508173ffffffffffffffffffffffffffffffffffffffff168373ffffffffffffffffffffffffffffffffffffffff167f17307eab39ab6107e8899845ad3d59bd9653f200f220920489ca2b5937696c31836040516117c09190611e94565b60405180910390a3505050565b60008073ffffffffffffffffffffffffffffffffffffffff166117ef83611624565b73ffffffffffffffffffffffffffffffffffffffff1614159050919050565b61181984848461132b565b61182584848484611a15565b611864576040517f08c379a000000000000000000000000000000000000000000000000000000000815260040161185b90612df5565b60405180910390fd5b50505050565b606060405180602001604052806000815250905090565b606061188c8261118a565b600061189661186a565b905060008151116118b657604051806020016040528060008152506118e1565b806118c084611b9c565b6040516020016118d19291906127e7565b6040516020818303038152906040525b915050919050565b6001811115611a0957600073ffffffffffffffffffffffffffffffffffffffff168473ffffffffffffffffffffffffffffffffffffffff161461197d5780600360008673ffffffffffffffffffffffffffffffffffffffff1673ffffffffffffffffffffffffffffffffffffffff16815260200190815260200160002060008282546119759190612e44565b925050819055505b600073ffffffffffffffffffffffffffffffffffffffff168373ffffffffffffffffffffffffffffffffffffffff1614611a085780600360008573ffffffffffffffffffffffffffffffffffffffff1673ffffffffffffffffffffffffffffffffffffffff1681526020019081526020016000206000828254611a009190612e78565b925050819055505b5b50505050565b50505050565b6000611a368473ffffffffffffffffffffffffffffffffffffffff16611c6a565b15611b8f578373ffffffffffffffffffffffffffffffffffffffff1663150b7a02611a5f6111d5565b8786866040518563ffffffff1660e01b8152600401611a819493929190612f01565b6020604051808303816000875af1925050508015611abd57506040513d601f19601f82011682018060405250810190611aba9190612f62565b60015b611b3f573d8060008114611aed576040519150601f19603f3d011682016040523d82523d6000602084013e611af2565b606091505b506000815103611b37576040517f08c379a0000000000000000000000000000000000000000000000000000000008152600401611b2e90612df5565b60405180910390fd5b805181602001fd5b63150b7a0260e01b7bffffffffffffffffffffffffffffffffffffffffffffffffffffffff1916817bffffffffffffffffffffffffffffffffffffffffffffffffffffffff191614915050611b94565b600190505b949350505050565b606060006001611bab84611c8d565b01905060008167ffffffffffffffff811115611bca57611bc9611eca565b5b6040519080825280601f01601f191660200182016040528015611bfc5781602001600182028036833780820191505090505b509050600082602001820190505b600115611c5f578080600190039150507f3031323334353637383961626364656600000000000000000000000000000000600a86061a8153600a8581611c5357611c52612f8f565b5b04945060008503611c0a575b819350505050919050565b6000808273ffffffffffffffffffffffffffffffffffffffff163b119050919050565b600080600090507a184f03e93ff9f4daa797ed6e38ed64bf6a1f0100000000000000008310611ceb577a184f03e93ff9f4daa797ed6e38ed64bf6a1f0100000000000000008381611ce157611ce0612f8f565b5b0492506040810190505b6d04ee2d6d415b85acef81000000008310611d28576d04ee2d6d415b85acef81000000008381611d1e57611d1d612f8f565b5b0492506020810190505b662386f26fc100008310611d5757662386f26fc100008381611d4d57611d4c612f8f565b5b0492506010810190505b6305f5e1008310611d80576305f5e1008381611d7657611d75612f8f565b5b0492506008810190505b6127108310611da5576127108381611d9b57611d9a612f8f565b5b0492506004810190505b60648310611dc85760648381611dbe57611dbd612f8f565b5b0492506002810190505b600a8310611dd7576001810190505b80915050919050565b6000604051905090565b600080fd5b600080fd5b60007fffffffff0000000000000000000000000000000000000000000000000000000082169050919050565b611e2981611df4565b8114611e3457600080fd5b50565b600081359050611e4681611e20565b92915050565b600060208284031215611e6257611e61611dea565b5b6000611e7084828501611e37565b91505092915050565b60008115159050919050565b611e8e81611e79565b82525050565b6000602082019050611ea96000830184611e85565b92915050565b600080fd5b600080fd5b6000601f19601f8301169050919050565b7f4e487b7100000000000000000000000000000000000000000000000000000000600052604160045260246000fd5b611f0282611eb9565b810181811067ffffffffffffffff82111715611f2157611f20611eca565b5b80604052505050565b6000611f34611de0565b9050611f408282611ef9565b919050565b600067ffffffffffffffff821115611f6057611f5f611eca565b5b611f6982611eb9565b9050602081019050919050565b82818337600083830152505050565b6000611f98611f9384611f45565b611f2a565b905082815260208101848484011115611fb457611fb3611eb4565b5b611fbf848285611f76565b509392505050565b600082601f830112611fdc57611fdb611eaf565b5b8135611fec848260208601611f85565b91505092915050565b6000819050919050565b61200881611ff5565b811461201357600080fd5b50565b60008135905061202581611fff565b92915050565b6000806040838503121561204257612041611dea565b5b600083013567ffffffffffffffff8111156120605761205f611def565b5b61206c85828601611fc7565b925050602061207d85828601612016565b9150509250929050565b61209081611ff5565b82525050565b60006020820190506120ab6000830184612087565b92915050565b600081519050919050565b600082825260208201905092915050565b60005b838110156120eb5780820151818401526020810190506120d0565b60008484015250505050565b6000612102826120b1565b61210c81856120bc565b935061211c8185602086016120cd565b61212581611eb9565b840191505092915050565b6000602082019050818103600083015261214a81846120f7565b905092915050565b60006020828403121561216857612167611dea565b5b600061217684828501612016565b91505092915050565b600073ffffffffffffffffffffffffffffffffffffffff82169050919050565b60006121aa8261217f565b9050919050565b6121ba8161219f565b82525050565b60006020820190506121d560008301846121b1565b92915050565b6121e48161219f565b81146121ef57600080fd5b50565b600081359050612201816121db565b92915050565b6000806040838503121561221e5761221d611dea565b5b600061222c858286016121f2565b925050602061223d85828601612016565b9150509250929050565b6000806000606084860312156122605761225f611dea565b5b600061226e868287016121f2565b935050602061227f868287016121f2565b925050604061229086828701612016565b9150509250925092565b6000602082840312156122b0576122af611dea565b5b60006122be848285016121f2565b91505092915050565b6122d081611e79565b81146122db57600080fd5b50565b6000813590506122ed816122c7565b92915050565b6000806040838503121561230a57612309611dea565b5b6000612318858286016121f2565b9250506020612329858286016122de565b9150509250929050565b600067ffffffffffffffff82111561234e5761234d611eca565b5b61235782611eb9565b9050602081019050919050565b600061237761237284612333565b611f2a565b90508281526020810184848401111561239357612392611eb4565b5b61239e848285611f76565b509392505050565b600082601f8301126123bb576123ba611eaf565b5b81356123cb848260208601612364565b91505092915050565b600080600080608085870312156123ee576123ed611dea565b5b60006123fc878288016121f2565b945050602061240d878288016121f2565b935050604061241e87828801612016565b925050606085013567ffffffffffffffff81111561243f5761243e611def565b5b61244b878288016123a6565b91505092959194509250565b6000806040838503121561246e5761246d611dea565b5b600061247c858286016121f2565b925050602061248d858286016121f2565b9150509250929050565b7f4e487b7100000000000000000000000000000000000000000000000000000000600052602260045260246000fd5b600060028204905060018216806124de57607f821691505b6020821081036124f1576124f0612497565b5b50919050565b7f4552433732313a20617070726f76616c20746f2063757272656e74206f776e6560008201527f7200000000000000000000000000000000000000000000000000000000000000602082015250565b60006125536021836120bc565b915061255e826124f7565b604082019050919050565b6000602082019050818103600083015261258281612546565b9050919050565b7f4552433732313a20617070726f76652063616c6c6572206973206e6f7420746f60008201527f6b656e206f776e6572206f7220617070726f76656420666f7220616c6c000000602082015250565b60006125e5603d836120bc565b91506125f082612589565b604082019050919050565b60006020820190508181036000830152612614816125d8565b9050919050565b7f4552433732313a2063616c6c6572206973206e6f7420746f6b656e206f776e6560008201527f72206f7220617070726f76656400000000000000000000000000000000000000602082015250565b6000612677602d836120bc565b91506126828261261b565b604082019050919050565b600060208201905081810360008301526126a68161266a565b9050919050565b7f4552433732313a20696e76616c696420746f6b656e2049440000000000000000600082015250565b60006126e36018836120bc565b91506126ee826126ad565b602082019050919050565b60006020820190508181036000830152612712816126d6565b9050919050565b7f4552433732313a2061646472657373207a65726f206973206e6f74206120766160008201527f6c6964206f776e65720000000000000000000000000000000000000000000000602082015250565b60006127756029836120bc565b915061278082612719565b604082019050919050565b600060208201905081810360008301526127a481612768565b9050919050565b600081905092915050565b60006127c1826120b1565b6127cb81856127ab565b93506127db8185602086016120cd565b80840191505092915050565b60006127f382856127b6565b91506127ff82846127b6565b91508190509392505050565b7f4552433732313a206d696e7420746f20746865207a65726f2061646472657373600082015250565b60006128416020836120bc565b915061284c8261280b565b602082019050919050565b6000602082019050818103600083015261287081612834565b9050919050565b7f4552433732313a20746f6b656e20616c7265616479206d696e74656400000000600082015250565b60006128ad601c836120bc565b91506128b882612877565b602082019050919050565b600060208201905081810360008301526128dc816128a0565b9050919050565b7f45524337323155524953746f726167653a2055524920736574206f66206e6f6e60008201527f6578697374656e7420746f6b656e000000000000000000000000000000000000602082015250565b600061293f602e836120bc565b915061294a826128e3565b604082019050919050565b6000602082019050818103600083015261296e81612932565b9050919050565b60008190508160005260206000209050919050565b60006020601f8301049050919050565b600082821b905092915050565b6000600883026129d77fffffffffffffffffffffffffffffffffffffffffffffffffffffffffffffffff8261299a565b6129e1868361299a565b95508019841693508086168417925050509392505050565b6000819050919050565b6000612a1e612a19612a1484611ff5565b6129f9565b611ff5565b9050919050565b6000819050919050565b612a3883612a03565b612a4c612a4482612a25565b8484546129a7565b825550505050565b600090565b612a61612a54565b612a6c818484612a2f565b505050565b5b81811015612a9057612a85600082612a59565b600181019050612a72565b5050565b601f821115612ad557612aa681612975565b612aaf8461298a565b81016020851015612abe578190505b612ad2612aca8561298a565b830182612a71565b50505b505050565b600082821c905092915050565b6000612af860001984600802612ada565b1980831691505092915050565b6000612b118383612ae7565b9150826002028217905092915050565b612b2a826120b1565b67ffffffffffffffff811115612b4357612b42611eca565b5b612b4d82546124c6565b612b58828285612a94565b600060209050601f831160018114612b8b5760008415612b79578287015190505b612b838582612b05565b865550612beb565b601f198416612b9986612975565b60005b82811015612bc157848901518255600182019150602085019450602081019050612b9c565b86831015612bde5784890151612bda601f891682612ae7565b8355505b6001600288020188555050505b505050505050565b7f4552433732313a207472616e736665722066726f6d20696e636f72726563742060008201527f6f776e6572000000000000000000000000000000000000000000000000000000602082015250565b6000612c4f6025836120bc565b9150612c5a82612bf3565b604082019050919050565b60006020820190508181036000830152612c7e81612c42565b9050919050565b7f4552433732313a207472616e7366657220746f20746865207a65726f2061646460008201527f7265737300000000000000000000000000000000000000000000000000000000602082015250565b6000612ce16024836120bc565b9150612cec82612c85565b604082019050919050565b60006020820190508181036000830152612d1081612cd4565b9050919050565b7f4552433732313a20617070726f766520746f2063616c6c657200000000000000600082015250565b6000612d4d6019836120bc565b9150612d5882612d17565b602082019050919050565b60006020820190508181036000830152612d7c81612d40565b9050919050565b7f4552433732313a207472616e7366657220746f206e6f6e20455243373231526560008201527f63656976657220696d706c656d656e7465720000000000000000000000000000602082015250565b6000612ddf6032836120bc565b9150612dea82612d83565b604082019050919050565b60006020820190508181036000830152612e0e81612dd2565b9050919050565b7f4e487b7100000000000000000000000000000000000000000000000000000000600052601160045260246000fd5b6000612e4f82611ff5565b9150612e5a83611ff5565b9250828203905081811115612e7257612e71612e15565b5b92915050565b6000612e8382611ff5565b9150612e8e83611ff5565b9250828201905080821115612ea657612ea5612e15565b5b92915050565b600081519050919050565b600082825260208201905092915050565b6000612ed382612eac565b612edd8185612eb7565b9350612eed8185602086016120cd565b612ef681611eb9565b840191505092915050565b6000608082019050612f1660008301876121b1565b612f2360208301866121b1565b612f306040830185612087565b8181036060830152612f428184612ec8565b905095945050505050565b600081519050612f5c81611e20565b92915050565b600060208284031215612f7857612f77611dea565b5b6000612f8684828501612f4d565b91505092915050565b7f4e487b7100000000000000000000000000000000000000000000000000000000600052601260045260246000fdfea2646970667358221220b84ea38cb887ce822f291e24a481da78a194dcda2021e393ce60b0be8210fa3464736f6c63430008110033",
  "linkReferences": {},
  "deployedLinkReferences": {}
}